{
  "_format": "hh-sol-artifact-1",
  "contractName": "DegenToken",
  "sourceName": "contracts/DegenToken.sol",
  "abi": [
    {
      "inputs": [],
      "stateMutability": "nonpayable",
      "type": "constructor"
    },
    {
      "anonymous": false,
      "inputs": [
        {
          "indexed": true,
          "internalType": "address",
          "name": "owner",
          "type": "address"
        },
        {
          "indexed": true,
          "internalType": "address",
          "name": "spender",
          "type": "address"
        },
        {
          "indexed": false,
          "internalType": "uint256",
          "name": "value",
          "type": "uint256"
        }
      ],
      "name": "Approval",
      "type": "event"
    },
    {
      "anonymous": false,
      "inputs": [
        {
          "indexed": true,
          "internalType": "address",
          "name": "previousOwner",
          "type": "address"
        },
        {
          "indexed": true,
          "internalType": "address",
          "name": "newOwner",
          "type": "address"
        }
      ],
      "name": "OwnershipTransferred",
      "type": "event"
    },
    {
      "anonymous": false,
      "inputs": [
        {
          "indexed": true,
          "internalType": "address",
          "name": "from",
          "type": "address"
        },
        {
          "indexed": true,
          "internalType": "address",
          "name": "to",
          "type": "address"
        },
        {
          "indexed": false,
          "internalType": "uint256",
          "name": "value",
          "type": "uint256"
        }
      ],
      "name": "Transfer",
      "type": "event"
    },
    {
      "inputs": [],
      "name": "a",
      "outputs": [
        {
          "internalType": "uint256",
          "name": "",
          "type": "uint256"
        }
      ],
      "stateMutability": "view",
      "type": "function"
    },
    {
      "inputs": [
        {
          "internalType": "address",
          "name": "owner",
          "type": "address"
        },
        {
          "internalType": "address",
          "name": "spender",
          "type": "address"
        }
      ],
      "name": "allowance",
      "outputs": [
        {
          "internalType": "uint256",
          "name": "",
          "type": "uint256"
        }
      ],
      "stateMutability": "view",
      "type": "function"
    },
    {
      "inputs": [
        {
          "internalType": "address",
          "name": "spender",
          "type": "address"
        },
        {
          "internalType": "uint256",
          "name": "amount",
          "type": "uint256"
        }
      ],
      "name": "approve",
      "outputs": [
        {
          "internalType": "bool",
          "name": "",
          "type": "bool"
        }
      ],
      "stateMutability": "nonpayable",
      "type": "function"
    },
    {
      "inputs": [
        {
          "internalType": "address",
          "name": "account",
          "type": "address"
        }
      ],
      "name": "balanceOf",
      "outputs": [
        {
          "internalType": "uint256",
          "name": "",
          "type": "uint256"
        }
      ],
      "stateMutability": "view",
      "type": "function"
    },
    {
      "inputs": [
        {
          "internalType": "uint256",
          "name": "amount",
          "type": "uint256"
        }
      ],
      "name": "burn",
      "outputs": [],
      "stateMutability": "nonpayable",
      "type": "function"
    },
    {
      "inputs": [
        {
          "internalType": "address",
          "name": "account",
          "type": "address"
        },
        {
          "internalType": "uint256",
          "name": "amount",
          "type": "uint256"
        }
      ],
      "name": "burnFrom",
      "outputs": [],
      "stateMutability": "nonpayable",
      "type": "function"
    },
    {
      "inputs": [],
      "name": "choices",
      "outputs": [
        {
          "internalType": "string",
          "name": "",
          "type": "string"
        }
      ],
      "stateMutability": "view",
      "type": "function"
    },
    {
      "inputs": [],
      "name": "decimals",
      "outputs": [
        {
          "internalType": "uint8",
          "name": "",
          "type": "uint8"
        }
      ],
      "stateMutability": "pure",
      "type": "function"
    },
    {
      "inputs": [
        {
          "internalType": "address",
          "name": "spender",
          "type": "address"
        },
        {
          "internalType": "uint256",
          "name": "subtractedValue",
          "type": "uint256"
        }
      ],
      "name": "decreaseAllowance",
      "outputs": [
        {
          "internalType": "bool",
          "name": "",
          "type": "bool"
        }
      ],
      "stateMutability": "nonpayable",
      "type": "function"
    },
    {
      "inputs": [
        {
          "internalType": "address",
          "name": "spender",
          "type": "address"
        },
        {
          "internalType": "uint256",
          "name": "addedValue",
          "type": "uint256"
        }
      ],
      "name": "increaseAllowance",
      "outputs": [
        {
          "internalType": "bool",
          "name": "",
          "type": "bool"
        }
      ],
      "stateMutability": "nonpayable",
      "type": "function"
    },
    {
      "inputs": [
        {
          "internalType": "address",
          "name": "to",
          "type": "address"
        },
        {
          "internalType": "uint256",
          "name": "amount",
          "type": "uint256"
        }
      ],
      "name": "mint",
      "outputs": [],
      "stateMutability": "nonpayable",
      "type": "function"
    },
    {
      "inputs": [],
      "name": "name",
      "outputs": [
        {
          "internalType": "string",
          "name": "",
          "type": "string"
        }
      ],
      "stateMutability": "view",
      "type": "function"
    },
    {
      "inputs": [],
      "name": "owner",
      "outputs": [
        {
          "internalType": "address",
          "name": "",
          "type": "address"
        }
      ],
      "stateMutability": "view",
      "type": "function"
    },
    {
      "inputs": [
        {
          "internalType": "string",
          "name": "x",
          "type": "string"
        }
      ],
      "name": "redeem",
      "outputs": [],
      "stateMutability": "payable",
      "type": "function"
    },
    {
      "inputs": [],
      "name": "renounceOwnership",
      "outputs": [],
      "stateMutability": "nonpayable",
      "type": "function"
    },
    {
      "inputs": [],
      "name": "symbol",
      "outputs": [
        {
          "internalType": "string",
          "name": "",
          "type": "string"
        }
      ],
      "stateMutability": "view",
      "type": "function"
    },
    {
      "inputs": [],
      "name": "totalSupply",
      "outputs": [
        {
          "internalType": "uint256",
          "name": "",
          "type": "uint256"
        }
      ],
      "stateMutability": "view",
      "type": "function"
    },
    {
      "inputs": [
        {
          "internalType": "address",
          "name": "to",
          "type": "address"
        },
        {
          "internalType": "uint256",
          "name": "amount",
          "type": "uint256"
        }
      ],
      "name": "transfer",
      "outputs": [
        {
          "internalType": "bool",
          "name": "",
          "type": "bool"
        }
      ],
      "stateMutability": "nonpayable",
      "type": "function"
    },
    {
      "inputs": [
        {
          "internalType": "address",
          "name": "from",
          "type": "address"
        },
        {
          "internalType": "address",
          "name": "to",
          "type": "address"
        },
        {
          "internalType": "uint256",
          "name": "amount",
          "type": "uint256"
        }
      ],
      "name": "transferFrom",
      "outputs": [
        {
          "internalType": "bool",
          "name": "",
          "type": "bool"
        }
      ],
      "stateMutability": "nonpayable",
      "type": "function"
    },
    {
      "inputs": [
        {
          "internalType": "address",
          "name": "newOwner",
          "type": "address"
        }
      ],
      "name": "transferOwnership",
      "outputs": [],
      "stateMutability": "nonpayable",
      "type": "function"
    }
  ],
  "bytecode": "0x60806040526040518060400160405280601481526020017f434f4d4d4f4e2c20524152452c20554e49515545000000000000000000000000815250600690816200004a91906200045e565b5060256007553480156200005d57600080fd5b506040518060400160405280600581526020017f446567656e0000000000000000000000000000000000000000000000000000008152506040518060400160405280600381526020017f44474e00000000000000000000000000000000000000000000000000000000008152508160039081620000db91906200045e565b508060049081620000ed91906200045e565b50505062000110620001046200011660201b60201c565b6200011e60201b60201c565b62000545565b600033905090565b6000600560009054906101000a900473ffffffffffffffffffffffffffffffffffffffff16905081600560006101000a81548173ffffffffffffffffffffffffffffffffffffffff021916908373ffffffffffffffffffffffffffffffffffffffff1602179055508173ffffffffffffffffffffffffffffffffffffffff168173ffffffffffffffffffffffffffffffffffffffff167f8be0079c531659141344cd1fd0a4f28419497f9722a3daafe3b4186f6b6457e060405160405180910390a35050565b600081519050919050565b7f4e487b7100000000000000000000000000000000000000000000000000000000600052604160045260246000fd5b7f4e487b7100000000000000000000000000000000000000000000000000000000600052602260045260246000fd5b600060028204905060018216806200026657607f821691505b6020821081036200027c576200027b6200021e565b5b50919050565b60008190508160005260206000209050919050565b60006020601f8301049050919050565b600082821b905092915050565b600060088302620002e67fffffffffffffffffffffffffffffffffffffffffffffffffffffffffffffffff82620002a7565b620002f28683620002a7565b95508019841693508086168417925050509392505050565b6000819050919050565b6000819050919050565b60006200033f6200033962000333846200030a565b62000314565b6200030a565b9050919050565b6000819050919050565b6200035b836200031e565b620003736200036a8262000346565b848454620002b4565b825550505050565b600090565b6200038a6200037b565b6200039781848462000350565b505050565b5b81811015620003bf57620003b360008262000380565b6001810190506200039d565b5050565b601f8211156200040e57620003d88162000282565b620003e38462000297565b81016020851015620003f3578190505b6200040b620004028562000297565b8301826200039c565b50505b505050565b600082821c905092915050565b6000620004336000198460080262000413565b1980831691505092915050565b60006200044e838362000420565b9150826002028217905092915050565b6200046982620001e4565b67ffffffffffffffff811115620004855762000484620001ef565b5b6200049182546200024d565b6200049e828285620003c3565b600060209050601f831160018114620004d65760008415620004c1578287015190505b620004cd858262000440565b8655506200053d565b601f198416620004e68662000282565b60005b828110156200051057848901518255600182019150602085019450602081019050620004e9565b868310156200053057848901516200052c601f89168262000420565b8355505b6001600288020188555050505b505050505050565b61260980620005556000396000f3fe60806040526004361061011f5760003560e01c806370a08231116100a0578063a457c2d711610064578063a457c2d7146103c8578063a9059cbb14610405578063bfd9076014610442578063dd62ed3e1461046d578063f2fde38b146104aa5761011f565b806370a08231146102f5578063715018a61461033257806379cc6790146103495780638da5cb5b1461037257806395d89b411461039d5761011f565b806323b872dd116100e757806323b872dd146101fe578063313ce5671461023b578063395093511461026657806340c10f19146102a357806342966c68146102cc5761011f565b806306fdde0314610124578063095ea7b31461014f5780630dbe671f1461018c5780631222c25a146101b757806318160ddd146101d3575b600080fd5b34801561013057600080fd5b506101396104d3565b604051610146919061161e565b60405180910390f35b34801561015b57600080fd5b50610176600480360381019061017191906116e8565b610565565b6040516101839190611743565b60405180910390f35b34801561019857600080fd5b506101a1610588565b6040516101ae919061176d565b60405180910390f35b6101d160048036038101906101cc91906118bd565b61058e565b005b3480156101df57600080fd5b506101e8610841565b6040516101f5919061176d565b60405180910390f35b34801561020a57600080fd5b5061022560048036038101906102209190611906565b61084b565b6040516102329190611743565b60405180910390f35b34801561024757600080fd5b5061025061087a565b60405161025d9190611975565b60405180910390f35b34801561027257600080fd5b5061028d600480360381019061028891906116e8565b61087f565b60405161029a9190611743565b60405180910390f35b3480156102af57600080fd5b506102ca60048036038101906102c591906116e8565b6108b6565b005b3480156102d857600080fd5b506102f360048036038101906102ee9190611990565b6108cc565b005b34801561030157600080fd5b5061031c600480360381019061031791906119bd565b6108e0565b604051610329919061176d565b60405180910390f35b34801561033e57600080fd5b50610347610928565b005b34801561035557600080fd5b50610370600480360381019061036b91906116e8565b61093c565b005b34801561037e57600080fd5b5061038761095c565b60405161039491906119f9565b60405180910390f35b3480156103a957600080fd5b506103b2610986565b6040516103bf919061161e565b60405180910390f35b3480156103d457600080fd5b506103ef60048036038101906103ea91906116e8565b610a18565b6040516103fc9190611743565b60405180910390f35b34801561041157600080fd5b5061042c600480360381019061042791906116e8565b610a8f565b6040516104399190611743565b60405180910390f35b34801561044e57600080fd5b50610457610ab2565b604051610464919061161e565b60405180910390f35b34801561047957600080fd5b50610494600480360381019061048f9190611a14565b610b40565b6040516104a1919061176d565b60405180910390f35b3480156104b657600080fd5b506104d160048036038101906104cc91906119bd565b610bc7565b005b6060600380546104e290611a83565b80601f016020809104026020016040519081016040528092919081815260200182805461050e90611a83565b801561055b5780601f106105305761010080835404028352916020019161055b565b820191906000526020600020905b81548152906001019060200180831161053e57829003601f168201915b5050505050905090565b600080610570610c4a565b905061057d818585610c52565b600191505092915050565b60075481565b60405160200161059d90611b0b565b60405160208183030381529060405280519060200120816040516020016105c49190611b51565b604051602081830303815290604052805190602001200361065d5760646105ea336108e0565b101561062b576040517f08c379a000000000000000000000000000000000000000000000000000000000815260040161062290611c26565b60405180910390fd5b610636336064610565565b506106573373884d7cfe40526bce1a5be9c89fd666b8efcf2056606461084b565b5061083e565b60405160200161066c90611c92565b60405160208183030381529060405280519060200120816040516020016106939190611b51565b604051602081830303815290604052805190602001200361072f576101f46106ba336108e0565b10156106fb576040517f08c379a00000000000000000000000000000000000000000000000000000000081526004016106f290611d3f565b60405180910390fd5b610707336101f4610565565b506107293373884d7cfe40526bce1a5be9c89fd666b8efcf20566101f461084b565b5061083d565b60405160200161073e90611dab565b60405160208183030381529060405280519060200120816040516020016107659190611b51565b6040516020818303038152906040528051906020012003610801576103e861078c336108e0565b10156107cd576040517f08c379a00000000000000000000000000000000000000000000000000000000081526004016107c490611e7e565b60405180910390fd5b6107d9336103e8610565565b506107fb3373884d7cfe40526bce1a5be9c89fd666b8efcf20566103e861084b565b5061083c565b6040517f08c379a000000000000000000000000000000000000000000000000000000000815260040161083390611eea565b60405180910390fd5b5b5b50565b6000600254905090565b600080610856610c4a565b9050610863858285610e1b565b61086e858585610ea7565b60019150509392505050565b600090565b60008061088a610c4a565b90506108ab81858561089c8589610b40565b6108a69190611f39565b610c52565b600191505092915050565b6108be61111d565b6108c8828261119b565b5050565b6108dd6108d7610c4a565b826112f1565b50565b60008060008373ffffffffffffffffffffffffffffffffffffffff1673ffffffffffffffffffffffffffffffffffffffff168152602001908152602001600020549050919050565b61093061111d565b61093a60006114be565b565b61094e82610948610c4a565b83610e1b565b61095882826112f1565b5050565b6000600560009054906101000a900473ffffffffffffffffffffffffffffffffffffffff16905090565b60606004805461099590611a83565b80601f01602080910402602001604051908101604052809291908181526020018280546109c190611a83565b8015610a0e5780601f106109e357610100808354040283529160200191610a0e565b820191906000526020600020905b8154815290600101906020018083116109f157829003601f168201915b5050505050905090565b600080610a23610c4a565b90506000610a318286610b40565b905083811015610a76576040517f08c379a0000000000000000000000000000000000000000000000000000000008152600401610a6d90611fdf565b60405180910390fd5b610a838286868403610c52565b60019250505092915050565b600080610a9a610c4a565b9050610aa7818585610ea7565b600191505092915050565b60068054610abf90611a83565b80601f0160208091040260200160405190810160405280929190818152602001828054610aeb90611a83565b8015610b385780601f10610b0d57610100808354040283529160200191610b38565b820191906000526020600020905b815481529060010190602001808311610b1b57829003601f168201915b505050505081565b6000600160008473ffffffffffffffffffffffffffffffffffffffff1673ffffffffffffffffffffffffffffffffffffffff16815260200190815260200160002060008373ffffffffffffffffffffffffffffffffffffffff1673ffffffffffffffffffffffffffffffffffffffff16815260200190815260200160002054905092915050565b610bcf61111d565b600073ffffffffffffffffffffffffffffffffffffffff168173ffffffffffffffffffffffffffffffffffffffff1603610c3e576040517f08c379a0000000000000000000000000000000000000000000000000000000008152600401610c3590612071565b60405180910390fd5b610c47816114be565b50565b600033905090565b600073ffffffffffffffffffffffffffffffffffffffff168373ffffffffffffffffffffffffffffffffffffffff1603610cc1576040517f08c379a0000000000000000000000000000000000000000000000000000000008152600401610cb890612103565b60405180910390fd5b600073ffffffffffffffffffffffffffffffffffffffff168273ffffffffffffffffffffffffffffffffffffffff1603610d30576040517f08c379a0000000000000000000000000000000000000000000000000000000008152600401610d2790612195565b60405180910390fd5b80600160008573ffffffffffffffffffffffffffffffffffffffff1673ffffffffffffffffffffffffffffffffffffffff16815260200190815260200160002060008473ffffffffffffffffffffffffffffffffffffffff1673ffffffffffffffffffffffffffffffffffffffff168152602001908152602001600020819055508173ffffffffffffffffffffffffffffffffffffffff168373ffffffffffffffffffffffffffffffffffffffff167f8c5be1e5ebec7d5bd14f71427d1e84f3dd0314c0f7b2291e5b200ac8c7c3b92583604051610e0e919061176d565b60405180910390a3505050565b6000610e278484610b40565b90507fffffffffffffffffffffffffffffffffffffffffffffffffffffffffffffffff8114610ea15781811015610e93576040517f08c379a0000000000000000000000000000000000000000000000000000000008152600401610e8a90612201565b60405180910390fd5b610ea08484848403610c52565b5b50505050565b600073ffffffffffffffffffffffffffffffffffffffff168373ffffffffffffffffffffffffffffffffffffffff1603610f16576040517f08c379a0000000000000000000000000000000000000000000000000000000008152600401610f0d90612293565b60405180910390fd5b600073ffffffffffffffffffffffffffffffffffffffff168273ffffffffffffffffffffffffffffffffffffffff1603610f85576040517f08c379a0000000000000000000000000000000000000000000000000000000008152600401610f7c90612325565b60405180910390fd5b610f90838383611584565b60008060008573ffffffffffffffffffffffffffffffffffffffff1673ffffffffffffffffffffffffffffffffffffffff16815260200190815260200160002054905081811015611016576040517f08c379a000000000000000000000000000000000000000000000000000000000815260040161100d906123b7565b60405180910390fd5b8181036000808673ffffffffffffffffffffffffffffffffffffffff1673ffffffffffffffffffffffffffffffffffffffff16815260200190815260200160002081905550816000808573ffffffffffffffffffffffffffffffffffffffff1673ffffffffffffffffffffffffffffffffffffffff168152602001908152602001600020600082825401925050819055508273ffffffffffffffffffffffffffffffffffffffff168473ffffffffffffffffffffffffffffffffffffffff167fddf252ad1be2c89b69c2b068fc378daa952ba7f163c4a11628f55a4df523b3ef84604051611104919061176d565b60405180910390a3611117848484611589565b50505050565b611125610c4a565b73ffffffffffffffffffffffffffffffffffffffff1661114361095c565b73ffffffffffffffffffffffffffffffffffffffff1614611199576040517f08c379a000000000000000000000000000000000000000000000000000000000815260040161119090612423565b60405180910390fd5b565b600073ffffffffffffffffffffffffffffffffffffffff168273ffffffffffffffffffffffffffffffffffffffff160361120a576040517f08c379a00000000000000000000000000000000000000000000000000000000081526004016112019061248f565b60405180910390fd5b61121660008383611584565b80600260008282546112289190611f39565b92505081905550806000808473ffffffffffffffffffffffffffffffffffffffff1673ffffffffffffffffffffffffffffffffffffffff168152602001908152602001600020600082825401925050819055508173ffffffffffffffffffffffffffffffffffffffff16600073ffffffffffffffffffffffffffffffffffffffff167fddf252ad1be2c89b69c2b068fc378daa952ba7f163c4a11628f55a4df523b3ef836040516112d9919061176d565b60405180910390a36112ed60008383611589565b5050565b600073ffffffffffffffffffffffffffffffffffffffff168273ffffffffffffffffffffffffffffffffffffffff1603611360576040517f08c379a000000000000000000000000000000000000000000000000000000000815260040161135790612521565b60405180910390fd5b61136c82600083611584565b60008060008473ffffffffffffffffffffffffffffffffffffffff1673ffffffffffffffffffffffffffffffffffffffff168152602001908152602001600020549050818110156113f2576040517f08c379a00000000000000000000000000000000000000000000000000000000081526004016113e9906125b3565b60405180910390fd5b8181036000808573ffffffffffffffffffffffffffffffffffffffff1673ffffffffffffffffffffffffffffffffffffffff1681526020019081526020016000208190555081600260008282540392505081905550600073ffffffffffffffffffffffffffffffffffffffff168373ffffffffffffffffffffffffffffffffffffffff167fddf252ad1be2c89b69c2b068fc378daa952ba7f163c4a11628f55a4df523b3ef846040516114a5919061176d565b60405180910390a36114b983600084611589565b505050565b6000600560009054906101000a900473ffffffffffffffffffffffffffffffffffffffff16905081600560006101000a81548173ffffffffffffffffffffffffffffffffffffffff021916908373ffffffffffffffffffffffffffffffffffffffff1602179055508173ffffffffffffffffffffffffffffffffffffffff168173ffffffffffffffffffffffffffffffffffffffff167f8be0079c531659141344cd1fd0a4f28419497f9722a3daafe3b4186f6b6457e060405160405180910390a35050565b505050565b505050565b600081519050919050565b600082825260208201905092915050565b60005b838110156115c85780820151818401526020810190506115ad565b60008484015250505050565b6000601f19601f8301169050919050565b60006115f08261158e565b6115fa8185611599565b935061160a8185602086016115aa565b611613816115d4565b840191505092915050565b6000602082019050818103600083015261163881846115e5565b905092915050565b6000604051905090565b600080fd5b600080fd5b600073ffffffffffffffffffffffffffffffffffffffff82169050919050565b600061167f82611654565b9050919050565b61168f81611674565b811461169a57600080fd5b50565b6000813590506116ac81611686565b92915050565b6000819050919050565b6116c5816116b2565b81146116d057600080fd5b50565b6000813590506116e2816116bc565b92915050565b600080604083850312156116ff576116fe61164a565b5b600061170d8582860161169d565b925050602061171e858286016116d3565b9150509250929050565b60008115159050919050565b61173d81611728565b82525050565b60006020820190506117586000830184611734565b92915050565b611767816116b2565b82525050565b6000602082019050611782600083018461175e565b92915050565b600080fd5b600080fd5b7f4e487b7100000000000000000000000000000000000000000000000000000000600052604160045260246000fd5b6117ca826115d4565b810181811067ffffffffffffffff821117156117e9576117e8611792565b5b80604052505050565b60006117fc611640565b905061180882826117c1565b919050565b600067ffffffffffffffff82111561182857611827611792565b5b611831826115d4565b9050602081019050919050565b82818337600083830152505050565b600061186061185b8461180d565b6117f2565b90508281526020810184848401111561187c5761187b61178d565b5b61188784828561183e565b509392505050565b600082601f8301126118a4576118a3611788565b5b81356118b484826020860161184d565b91505092915050565b6000602082840312156118d3576118d261164a565b5b600082013567ffffffffffffffff8111156118f1576118f061164f565b5b6118fd8482850161188f565b91505092915050565b60008060006060848603121561191f5761191e61164a565b5b600061192d8682870161169d565b935050602061193e8682870161169d565b925050604061194f868287016116d3565b9150509250925092565b600060ff82169050919050565b61196f81611959565b82525050565b600060208201905061198a6000830184611966565b92915050565b6000602082840312156119a6576119a561164a565b5b60006119b4848285016116d3565b91505092915050565b6000602082840312156119d3576119d261164a565b5b60006119e18482850161169d565b91505092915050565b6119f381611674565b82525050565b6000602082019050611a0e60008301846119ea565b92915050565b60008060408385031215611a2b57611a2a61164a565b5b6000611a398582860161169d565b9250506020611a4a8582860161169d565b9150509250929050565b7f4e487b7100000000000000000000000000000000000000000000000000000000600052602260045260246000fd5b60006002820490506001821680611a9b57607f821691505b602082108103611aae57611aad611a54565b5b50919050565b600081905092915050565b7f434f4d4d4f4e0000000000000000000000000000000000000000000000000000600082015250565b6000611af5600683611ab4565b9150611b0082611abf565b600682019050919050565b6000611b1682611ae8565b9150819050919050565b6000611b2b8261158e565b611b358185611ab4565b9350611b458185602086016115aa565b80840191505092915050565b6000611b5d8284611b20565b915081905092915050565b7f596f7520646f6e74206861766520656e6f7567682044474e20546f6b656e732060008201527f746f2070757263686173652074686520436f6d6d6f6e204e46542c20546f6b6560208201527f6e73207265717569726564206d757374206265206d6f7265207468616e20313060408201527f3000000000000000000000000000000000000000000000000000000000000000606082015250565b6000611c10606183611599565b9150611c1b82611b68565b608082019050919050565b60006020820190508181036000830152611c3f81611c03565b9050919050565b7f5241524500000000000000000000000000000000000000000000000000000000600082015250565b6000611c7c600483611ab4565b9150611c8782611c46565b600482019050919050565b6000611c9d82611c6f565b9150819050919050565b7f596f7520646f6e74206861766520656e6f7567682044474e20546f6b656e732060008201527f746f207075726368617365207468652052415245204e46542c20546f6b656e7360208201527f207265717569726564206d757374206265206d6f7265207468616e2035303000604082015250565b6000611d29605f83611599565b9150611d3482611ca7565b606082019050919050565b60006020820190508181036000830152611d5881611d1c565b9050919050565b7f554e495155450000000000000000000000000000000000000000000000000000600082015250565b6000611d95600683611ab4565b9150611da082611d5f565b600682019050919050565b6000611db682611d88565b9150819050919050565b7f596f7520646f6e74206861766520656e6f7567682044474e20546f6b656e732060008201527f746f2070757263686173652074686520436f6d6d6f6e204e46542c20546f6b6560208201527f6e73207265717569726564206d757374206265206d6f7265207468616e20313060408201527f3030000000000000000000000000000000000000000000000000000000000000606082015250565b6000611e68606283611599565b9150611e7382611dc0565b608082019050919050565b60006020820190508181036000830152611e9781611e5b565b9050919050565b7f494e56414c49442043484f494345210000000000000000000000000000000000600082015250565b6000611ed4600f83611599565b9150611edf82611e9e565b602082019050919050565b60006020820190508181036000830152611f0381611ec7565b9050919050565b7f4e487b7100000000000000000000000000000000000000000000000000000000600052601160045260246000fd5b6000611f44826116b2565b9150611f4f836116b2565b9250828201905080821115611f6757611f66611f0a565b5b92915050565b7f45524332303a2064656372656173656420616c6c6f77616e63652062656c6f7760008201527f207a65726f000000000000000000000000000000000000000000000000000000602082015250565b6000611fc9602583611599565b9150611fd482611f6d565b604082019050919050565b60006020820190508181036000830152611ff881611fbc565b9050919050565b7f4f776e61626c653a206e6577206f776e657220697320746865207a65726f206160008201527f6464726573730000000000000000000000000000000000000000000000000000602082015250565b600061205b602683611599565b915061206682611fff565b604082019050919050565b6000602082019050818103600083015261208a8161204e565b9050919050565b7f45524332303a20617070726f76652066726f6d20746865207a65726f2061646460008201527f7265737300000000000000000000000000000000000000000000000000000000602082015250565b60006120ed602483611599565b91506120f882612091565b604082019050919050565b6000602082019050818103600083015261211c816120e0565b9050919050565b7f45524332303a20617070726f766520746f20746865207a65726f20616464726560008201527f7373000000000000000000000000000000000000000000000000000000000000602082015250565b600061217f602283611599565b915061218a82612123565b604082019050919050565b600060208201905081810360008301526121ae81612172565b9050919050565b7f45524332303a20696e73756666696369656e7420616c6c6f77616e6365000000600082015250565b60006121eb601d83611599565b91506121f6826121b5565b602082019050919050565b6000602082019050818103600083015261221a816121de565b9050919050565b7f45524332303a207472616e736665722066726f6d20746865207a65726f20616460008201527f6472657373000000000000000000000000000000000000000000000000000000602082015250565b600061227d602583611599565b915061228882612221565b604082019050919050565b600060208201905081810360008301526122ac81612270565b9050919050565b7f45524332303a207472616e7366657220746f20746865207a65726f206164647260008201527f6573730000000000000000000000000000000000000000000000000000000000602082015250565b600061230f602383611599565b915061231a826122b3565b604082019050919050565b6000602082019050818103600083015261233e81612302565b9050919050565b7f45524332303a207472616e7366657220616d6f756e742065786365656473206260008201527f616c616e63650000000000000000000000000000000000000000000000000000602082015250565b60006123a1602683611599565b91506123ac82612345565b604082019050919050565b600060208201905081810360008301526123d081612394565b9050919050565b7f4f776e61626c653a2063616c6c6572206973206e6f7420746865206f776e6572600082015250565b600061240d602083611599565b9150612418826123d7565b602082019050919050565b6000602082019050818103600083015261243c81612400565b9050919050565b7f45524332303a206d696e7420746f20746865207a65726f206164647265737300600082015250565b6000612479601f83611599565b915061248482612443565b602082019050919050565b600060208201905081810360008301526124a88161246c565b9050919050565b7f45524332303a206275726e2066726f6d20746865207a65726f2061646472657360008201527f7300000000000000000000000000000000000000000000000000000000000000602082015250565b600061250b602183611599565b9150612516826124af565b604082019050919050565b6000602082019050818103600083015261253a816124fe565b9050919050565b7f45524332303a206275726e20616d6f756e7420657863656564732062616c616e60008201527f6365000000000000000000000000000000000000000000000000000000000000602082015250565b600061259d602283611599565b91506125a882612541565b604082019050919050565b600060208201905081810360008301526125cc81612590565b905091905056fea2646970667358221220efb0b2fd218c8e3cf9290e9307cba4aca0c14d9bf6b298a739596413916467b664736f6c63430008120033",
  "linkReferences": {},
  "deployedLinkReferences": {}
}